{
  "contractName": "BootstrapList",
  "abi": [
    {
      "inputs": [],
      "payable": false,
      "stateMutability": "nonpayable",
      "type": "constructor"
    },
    {
      "constant": true,
      "inputs": [],
      "name": "members",
      "outputs": [
        {
          "internalType": "address[]",
          "name": "",
          "type": "address[]"
        }
      ],
      "payable": false,
      "stateMutability": "view",
      "type": "function"
    },
    {
      "constant": true,
      "inputs": [],
      "name": "entry",
      "outputs": [
        {
          "internalType": "string",
          "name": "",
          "type": "string"
        }
      ],
      "payable": false,
      "stateMutability": "view",
      "type": "function"
    }
  ],
  "bytecode": "0x60c0604052600e60808190527f6d65746163617274656c2e65746800000000000000000000000000000000000060a090815261003e91600191906100f5565b5034801561004b57600080fd5b5060008054600181810183558280527f290decd9548b62a8d60345a988386fc84ba6bc95484008f6362f93160ef3e56391820180546001600160a01b0319908116730aba55c93cf7292f71067b0ba0d8b464592895ca1790915583548083018555830180548216730eabffd8ce94ab2387fc44ba32642af0c58af4331790558354918201909355018054909116732566190503393b80bded55228c61a175f40e4d42179055610190565b828054600181600116156101000203166002900490600052602060002090601f016020900481019282601f1061013657805160ff1916838001178555610163565b82800160010185558215610163579182015b82811115610163578251825591602001919060010190610148565b5061016f929150610173565b5090565b61018d91905b8082111561016f5760008155600101610179565b90565b61023b8061019f6000396000f3fe608060405234801561001057600080fd5b50600436106100365760003560e01c806367f239dd1461003b578063bdd4d18d146100b8575b600080fd5b610043610110565b6040805160208082528351818301528351919283929083019185019080838360005b8381101561007d578181015183820152602001610065565b50505050905090810190601f1680156100aa5780820380516001836020036101000a031916815260200191505b509250505060405180910390f35b6100c06101a5565b60408051602080825283518183015283519192839290830191858101910280838360005b838110156100fc5781810151838201526020016100e4565b505050509050019250505060405180910390f35b60018054604080516020601f6002600019610100878916150201909516949094049384018190048102820181019092528281526060939092909183018282801561019b5780601f106101705761010080835404028352916020019161019b565b820191906000526020600020905b81548152906001019060200180831161017e57829003601f168201915b5050505050905090565b6060600080548060200260200160405190810160405280929190818152602001828054801561019b57602002820191906000526020600020905b81546001600160a01b031681526001909101906020018083116101df57505050505090509056fea265627a7a72315820b19f2a6e6176313c24d563508153604f29e04ceb147e25f6c58a15c42db5076d64736f6c634300050b0032",
  "source": "pragma solidity >0.5.6 <0.6.0;\n\ncontract BootstrapList {\n    address[] private _members;\n    string private _entry = \"metacartel.eth\";\n\n    constructor() public {\n        // on-chain verification of DAO _members\n        _members.push(0x0ABa55c93cF7292f71067B0Ba0D8b464592895cA);\n        _members.push(0x0EaBFFD8cE94ab2387fC44Ba32642aF0c58Af433);\n        _members.push(0x2566190503393b80bdEd55228C61A175f40E4D42);\n    }\n\n    function members() public view returns(address[] memory) {\n        return _members;\n    }\n    function entry() public view returns(string memory) {\n        return _entry;\n    }\n}",
  "sourcePath": "/Users/davidkajpust/coding-no-icloud-backup/thegraph/subgraphs/metacartel/appregistry/contracts/BootstrapList.sol",
  "compiler": {
    "name": "solc",
    "version": "0.5.11+commit.c082d0b4.Emscripten.clang"
  },
  "schemaVersion": "3.0.10",
  "updatedAt": "2019-10-02T15:59:03.212Z",
  "devdoc": {
    "methods": {}
  },
  "userdoc": {
    "methods": {}
  }
}