{
  "contractName": "Registry",
  "abi": [
    {
      "constant": true,
      "inputs": [],
      "name": "shares",
      "outputs": [
        {
          "internalType": "uint256",
          "name": "",
          "type": "uint256"
        }
      ],
      "payable": false,
      "stateMutability": "view",
      "type": "function"
    },
    {
      "constant": true,
      "inputs": [],
      "name": "name",
      "outputs": [
        {
          "internalType": "string",
          "name": "",
          "type": "string"
        }
      ],
      "payable": false,
      "stateMutability": "view",
      "type": "function"
    },
    {
      "constant": true,
      "inputs": [],
      "name": "decimals",
      "outputs": [
        {
          "internalType": "uint8",
          "name": "",
          "type": "uint8"
        }
      ],
      "payable": false,
      "stateMutability": "view",
      "type": "function"
    },
    {
      "constant": true,
      "inputs": [],
      "name": "didStart",
      "outputs": [
        {
          "internalType": "bool",
          "name": "",
          "type": "bool"
        }
      ],
      "payable": false,
      "stateMutability": "view",
      "type": "function"
    },
    {
      "constant": true,
      "inputs": [],
      "name": "proposalIndex",
      "outputs": [
        {
          "internalType": "uint256",
          "name": "",
          "type": "uint256"
        }
      ],
      "payable": false,
      "stateMutability": "view",
      "type": "function"
    },
    {
      "constant": true,
      "inputs": [],
      "name": "bootstrapList",
      "outputs": [
        {
          "internalType": "address",
          "name": "",
          "type": "address"
        }
      ],
      "payable": false,
      "stateMutability": "view",
      "type": "function"
    },
    {
      "constant": true,
      "inputs": [],
      "name": "symbol",
      "outputs": [
        {
          "internalType": "string",
          "name": "",
          "type": "string"
        }
      ],
      "payable": false,
      "stateMutability": "view",
      "type": "function"
    },
    {
      "constant": true,
      "inputs": [],
      "name": "tcrContract",
      "outputs": [
        {
          "internalType": "contract TCR",
          "name": "",
          "type": "address"
        }
      ],
      "payable": false,
      "stateMutability": "view",
      "type": "function"
    },
    {
      "constant": true,
      "inputs": [],
      "name": "votingDurationSecs",
      "outputs": [
        {
          "internalType": "uint256",
          "name": "",
          "type": "uint256"
        }
      ],
      "payable": false,
      "stateMutability": "view",
      "type": "function"
    },
    {
      "constant": true,
      "inputs": [],
      "name": "revealDurationSecs",
      "outputs": [
        {
          "internalType": "uint256",
          "name": "",
          "type": "uint256"
        }
      ],
      "payable": false,
      "stateMutability": "view",
      "type": "function"
    },
    {
      "constant": true,
      "inputs": [],
      "name": "grantor",
      "outputs": [
        {
          "internalType": "address",
          "name": "",
          "type": "address"
        }
      ],
      "payable": false,
      "stateMutability": "view",
      "type": "function"
    },
    {
      "constant": true,
      "inputs": [],
      "name": "approvedToken",
      "outputs": [
        {
          "internalType": "contract IERC20",
          "name": "",
          "type": "address"
        }
      ],
      "payable": false,
      "stateMutability": "view",
      "type": "function"
    },
    {
      "constant": true,
      "inputs": [],
      "name": "didRagequit",
      "outputs": [
        {
          "internalType": "bool",
          "name": "",
          "type": "bool"
        }
      ],
      "payable": false,
      "stateMutability": "view",
      "type": "function"
    },
    {
      "inputs": [
        {
          "internalType": "address",
          "name": "_grantor",
          "type": "address"
        },
        {
          "internalType": "address",
          "name": "_approvedToken",
          "type": "address"
        },
        {
          "internalType": "address",
          "name": "_bootstrapList",
          "type": "address"
        },
        {
          "internalType": "uint256",
          "name": "_votingDurationSecs",
          "type": "uint256"
        },
        {
          "internalType": "uint256",
          "name": "_revealDurationSecs",
          "type": "uint256"
        },
        {
          "internalType": "string",
          "name": "_name",
          "type": "string"
        },
        {
          "internalType": "string",
          "name": "_symbol",
          "type": "string"
        },
        {
          "internalType": "uint8",
          "name": "_decimals",
          "type": "uint8"
        }
      ],
      "payable": false,
      "stateMutability": "nonpayable",
      "type": "constructor"
    },
    {
      "anonymous": false,
      "inputs": [
        {
          "indexed": false,
          "internalType": "address",
          "name": "grantor",
          "type": "address"
        },
        {
          "indexed": false,
          "internalType": "address",
          "name": "approvedToken",
          "type": "address"
        },
        {
          "indexed": false,
          "internalType": "address",
          "name": "bootstrapList",
          "type": "address"
        },
        {
          "indexed": false,
          "internalType": "uint256",
          "name": "votingDurationSecs",
          "type": "uint256"
        },
        {
          "indexed": false,
          "internalType": "uint256",
          "name": "revealDurationSecs",
          "type": "uint256"
        },
        {
          "indexed": false,
          "internalType": "string",
          "name": "name",
          "type": "string"
        },
        {
          "indexed": false,
          "internalType": "string",
          "name": "symbol",
          "type": "string"
        },
        {
          "indexed": false,
          "internalType": "uint8",
          "name": "decimals",
          "type": "uint8"
        }
      ],
      "name": "Deployed",
      "type": "event"
    },
    {
      "anonymous": false,
      "inputs": [
        {
          "indexed": false,
          "internalType": "address",
          "name": "grantor",
          "type": "address"
        },
        {
          "indexed": false,
          "internalType": "uint256",
          "name": "shares",
          "type": "uint256"
        },
        {
          "indexed": false,
          "internalType": "uint256",
          "name": "amount",
          "type": "uint256"
        }
      ],
      "name": "Ragequit",
      "type": "event"
    },
    {
      "anonymous": false,
      "inputs": [
        {
          "indexed": false,
          "internalType": "address",
          "name": "tcrContract",
          "type": "address"
        },
        {
          "indexed": false,
          "internalType": "string",
          "name": "name",
          "type": "string"
        },
        {
          "indexed": false,
          "internalType": "string",
          "name": "symbol",
          "type": "string"
        },
        {
          "indexed": false,
          "internalType": "uint8",
          "name": "decimals",
          "type": "uint8"
        },
        {
          "indexed": false,
          "internalType": "address",
          "name": "bootstrapList",
          "type": "address"
        }
      ],
      "name": "TCRStart",
      "type": "event"
    },
    {
      "constant": false,
      "inputs": [
        {
          "internalType": "address",
          "name": "_tcr",
          "type": "address"
        },
        {
          "internalType": "uint256",
          "name": "_shares",
          "type": "uint256"
        }
      ],
      "name": "ragequit",
      "outputs": [
        {
          "internalType": "bool",
          "name": "",
          "type": "bool"
        }
      ],
      "payable": false,
      "stateMutability": "nonpayable",
      "type": "function"
    },
    {
      "constant": false,
      "inputs": [
        {
          "internalType": "address",
          "name": "_token",
          "type": "address"
        }
      ],
      "name": "start",
      "outputs": [
        {
          "internalType": "bool",
          "name": "",
          "type": "bool"
        }
      ],
      "payable": false,
      "stateMutability": "nonpayable",
      "type": "function"
    }
  ],
  "bytecode": "0x60806040523480156200001157600080fd5b50604051620015483803806200154883398181016040526101008110156200003857600080fd5b815160208301516040808501516060860151608087015160a0880180519451969895979396929591949293820192846401000000008211156200007a57600080fd5b9083019060208201858111156200009057600080fd5b8251640100000000811182820188101715620000ab57600080fd5b82525081516020918201929091019080838360005b83811015620000da578181015183820152602001620000c0565b50505050905090810190601f168015620001085780820380516001836020036101000a031916815260200191505b50604052602001805160405193929190846401000000008211156200012c57600080fd5b9083019060208201858111156200014257600080fd5b82516401000000008111828201881017156200015d57600080fd5b82525081516020918201929091019080838360005b838110156200018c57818101518382015260200162000172565b50505050905090810190601f168015620001ba5780820380516001836020036101000a031916815260200191505b50604052602001519150506001600160a01b0388166200023b57604080517f08c379a000000000000000000000000000000000000000000000000000000000815260206004820152601460248201527f6772616e746f722063616e206e6f742062652030000000000000000000000000604482015290519081900360640190fd5b6001600160a01b038716620002b157604080517f08c379a000000000000000000000000000000000000000000000000000000000815260206004820152601960248201527f617070726f766564546f6b656e2063616e6e6f74206265203000000000000000604482015290519081900360640190fd5b6001600160a01b0386166200032757604080517f08c379a000000000000000000000000000000000000000000000000000000000815260206004820152601a60248201527f626f6f7473747261704c6973742063616e206e6f742062652030000000000000604482015290519081900360640190fd5b6000851162000382576040517f08c379a00000000000000000000000000000000000000000000000000000000081526004018080602001828103825260298152602001806200151f6029913960400191505060405180910390fd5b60008411620003dd576040517f08c379a0000000000000000000000000000000000000000000000000000000008152600401808060200182810382526029815260200180620014f66029913960400191505060405180910390fd5b604080516000815260208082018084528251902086519093879301918291908401908083835b60208310620004245780518252601f19909201916020918201910162000403565b6001836020036101000a038019825116818451168082178552505050505050905001915050604051602081830303815290604052805190602001201415620004cd57604080517f08c379a000000000000000000000000000000000000000000000000000000000815260206004820152601560248201527f6e616d652063616e206e6f7420626520656d7074790000000000000000000000604482015290519081900360640190fd5b604080516000815260208082018084528251902085519093869301918291908401908083835b60208310620005145780518252601f199092019160209182019101620004f3565b6001836020036101000a038019825116818451168082178552505050505050905001915050604051602081830303815290604052805190602001201415620005bd57604080517f08c379a000000000000000000000000000000000000000000000000000000000815260206004820152601760248201527f73796d626f6c2063616e206e6f7420626520656d707479000000000000000000604482015290519081900360640190fd5b60008160ff16116200063057604080517f08c379a000000000000000000000000000000000000000000000000000000000815260206004820152601860248201527f646563696d616c732063616e206e6f74206265207a65726f0000000000000000604482015290519081900360640190fd5b600080546001600160a01b03808b166001600160a01b031992831617909255600180548a841690831617905560078054928916929091169190911790556005859055600684905582516200068c906008906020860190620008fd565b508151620006a2906009906020850190620008fd565b50600a805460ff191660ff831617905560015460008054604080517f095ea7b30000000000000000000000000000000000000000000000000000000081526001600160a01b039283166004820152678ac7230489e8000060248201529051919093169263095ea7b39260448083019360209390929083900390910190829087803b1580156200073057600080fd5b505af115801562000745573d6000803e3d6000fd5b505050506040513d60208110156200075c57600080fd5b505060005460018054600754600554600654600a54604080516001600160a01b039889168082529689166020820181905298909516908501819052606085018490526080850183905260ff90911660e0850181905261010060a086018181526008805460029a81161584026000190116999099049187018290527f848337144ac7094e3ce0ab9a13a238df6559158eedf983610c5fcfba6d9128c699979893966009939290919060c083019061012084019087908015620008615780601f10620008355761010080835404028352916020019162000861565b820191906000526020600020905b8154815290600101906020018083116200084357829003601f168201915b5050838103825285546002600019610100600184161502019091160480825260209091019086908015620008d95780601f10620008ad57610100808354040283529160200191620008d9565b820191906000526020600020905b815481529060010190602001808311620008bb57829003601f168201915b50509a505050505050505050505060405180910390a15050505050505050620009a2565b828054600181600116156101000203166002900490600052602060002090601f016020900481019282601f106200094057805160ff191683800117855562000970565b8280016001018555821562000970579182015b828111156200097057825182559160200191906001019062000953565b506200097e92915062000982565b5090565b6200099f91905b808211156200097e576000815560010162000989565b90565b610b4480620009b26000396000f3fe608060405234801561001057600080fd5b50600436106100f55760003560e01c8063a1a1ba3311610097578063bab253b311610066578063bab253b314610243578063bab462591461024b578063c80ed99114610253578063dd0b281e1461025b576100f5565b8063a1a1ba33146101ff578063b319a1821461022b578063b6c3fed914610233578063b95a54031461023b576100f5565b8063410629d4116100d3578063410629d4146101af5780635977e0f2146101cb578063749d047c146101d357806395d89b41146101f7576100f5565b806303314efa146100fa57806306fdde0314610114578063313ce56714610191575b600080fd5b610102610281565b60408051918252519081900360200190f35b61011c610287565b6040805160208082528351818301528351919283929083019185019080838360005b8381101561015657818101518382015260200161013e565b50505050905090810190601f1680156101835780820380516001836020036101000a031916815260200191505b509250505060405180910390f35b610199610315565b6040805160ff9092168252519081900360200190f35b6101b761031e565b604080519115158252519081900360200190f35b61010261032e565b6101db610334565b604080516001600160a01b039092168252519081900360200190f35b61011c610343565b6101b76004803603604081101561021557600080fd5b506001600160a01b03813516906020013561039e565b6101db6107cd565b6101026107dc565b6101026107e2565b6101db6107e8565b6101db6107f7565b6101b7610806565b6101b76004803603602081101561027157600080fd5b50356001600160a01b0316610816565b60035481565b6008805460408051602060026001851615610100026000190190941693909304601f8101849004840282018401909252818152929183018282801561030d5780601f106102e25761010080835404028352916020019161030d565b820191906000526020600020905b8154815290600101906020018083116102f057829003601f168201915b505050505081565b600a5460ff1681565b600754600160a81b900460ff1681565b60045481565b6007546001600160a01b031681565b6009805460408051602060026001851615610100026000190190941693909304601f8101849004840282018401909252818152929183018282801561030d5780601f106102e25761010080835404028352916020019161030d565b600754600090600160a01b900460ff16156103f9576040805162461bcd60e51b815260206004820152601660248201527563616e206f6e6c79207261676571756974206f6e636560501b604482015290519081900360640190fd5b6000821161044e576040805162461bcd60e51b815260206004820181905260248201527f736861726573206d7573742062652067726561746572207468616e207a65726f604482015290519081900360640190fd5b600154604080516370a0823160e01b815230600482015290516000926001600160a01b0316916370a08231916024808301926020929190829003018186803b15801561049957600080fd5b505afa1580156104ad573d6000803e3d6000fd5b505050506040513d60208110156104c357600080fd5b505160005460408051602480820188905282518083039091018152604490910182526020810180516001600160e01b0316638436593f60e01b178152915181519495506001600160a01b039093169390929182918083835b6020831061053a5780518252601f19909201916020918201910161051b565b6001836020036101000a0380198251168184511680821785525050505050509050019150506000604051808303816000865af19150503d806000811461059c576040519150601f19603f3d011682016040523d82523d6000602084013e6105a1565b606091505b5050600154604080516370a0823160e01b815230600482015290516001600160a01b0390921692506370a08231916024808301926020929190829003018186803b1580156105ee57600080fd5b505afa158015610602573d6000803e3d6000fd5b505050506040513d602081101561061857600080fd5b5051600b819055600280546001600160a01b0319166001600160a01b03871617905581106106775760405162461bcd60e51b815260040180806020018281038252602d815260200180610ae3602d913960400191505060405180910390fd5b600154600254600b546040805163a9059cbb60e01b81526001600160a01b039384166004820152602481019290925251919092169163a9059cbb9160448083019260209291908290030181600087803b1580156106d357600080fd5b505af11580156106e7573d6000803e3d6000fd5b505050506040513d60208110156106fd57600080fd5b5051610750576040805162461bcd60e51b815260206004820152601c60248201527f6772616e74207472616e7366657220746f20544352206661696c656400000000604482015290519081900360640190fd5b60038390556007805460ff60a01b1916600160a01b179055600054600b54604080516001600160a01b0390931683526020830186905282810191909152517fcad1a1c68982832d9abc314de8a1e5d5e8c81b0588961e360766736d10c3be1a9181900360600190a15050600754600160a01b900460ff1692915050565b6002546001600160a01b031681565b60055481565b60065481565b6000546001600160a01b031681565b6001546001600160a01b031681565b600754600160a01b900460ff1681565b600754600090600160a81b900460ff161561086e576040805162461bcd60e51b81526020600482015260136024820152721510d488185b1c9958591e481cdd185c9d1959606a1b604482015290519081900360640190fd5b600754600160a01b900460ff1615156001146108bb5760405162461bcd60e51b8152600401808060200182810382526024815260200180610abf6024913960400191505060405180910390fd5b60025460408051636e85940f60e11b81526001600160a01b0385811660048301529151919092169163dd0b281e9160248083019260209291908290030181600087803b15801561090a57600080fd5b505af115801561091e573d6000803e3d6000fd5b505050506040513d602081101561093457600080fd5b50506007805460ff60a81b1916600160a81b179081905560028054600a54604080516001600160a01b0393841680825260ff9390931660608201819052939095166080860181905260a060208701818152600880546000196001821615610100020116979097049188018290527f3857a3a22082e79bba8a959789b4e12cb1d8851777480663c18c9a92bb15b6cf97949695600995909490929083019060c084019088908015610a255780601f106109fa57610100808354040283529160200191610a25565b820191906000526020600020905b815481529060010190602001808311610a0857829003601f168201915b5050838103825286546002600019610100600184161502019091160480825260209091019087908015610a995780601f10610a6e57610100808354040283529160200191610a99565b820191906000526020600020905b815481529060010190602001808311610a7c57829003601f168201915b505097505050505050505060405180910390a15050600754600160a81b900460ff169056fe6e65656420746f207261676571756974206265666f7265207374617274696e6720544352746f6b656e2062616c616e636520646964206e6f7420696e637265617365206166746572207261676571756974a265627a7a72315820642609b911e91206687a1a8f1c03de93ec544a66aed23814d7134dc4caf5a20264736f6c634300050b003272657665616c4475726174696f6e53656373206d7573742062652067726561746572207468616e2030766f74696e674475726174696f6e53656373206d7573742062652067726561746572207468616e2030",
  "source": "pragma solidity >0.5.6 <0.6.0;\n\nimport \"./IERC20.sol\";\nimport \"./TCR.sol\";\n\ncontract Registry {\n    /****************\n     GLOBAL CONSTANTS\n     ****************/\n    address public grantor; // the DAO providing the grant\n    IERC20 public approvedToken; // token approved by the DAO\n    TCR public tcrContract; // tcr contract reference\n    uint public shares; // shares given by DAO\n    uint public proposalIndex; // the DAO proposal index funding the initiative\n    uint public votingDurationSecs; // duration in secs for voting\n    uint public revealDurationSecs; // duration in secs to reveal votes\n    address public bootstrapList; // members to bootstrap in to the tcr\n\n    bool public didRagequit; // track rage quit status\n    bool public didStart; // track TCR start\n\n    string public name; // tcr token name\n    string public symbol; // tcr token symbol\n    uint8 public decimals; // number of decimals for the token\n\n    uint fundingTotal; // funding total including DAO grant\n\n    /******\n     EVENTS\n     ******/\n    event Deployed(\n        address grantor,\n        address approvedToken,\n        address bootstrapList,\n        uint votingDurationSecs,\n        uint revealDurationSecs,\n        string name,\n        string symbol,\n        uint8 decimals\n    );\n    event Ragequit(\n        address grantor,\n        uint shares,\n        uint amount\n    );\n\n    event TCRStart(\n        address tcrContract,\n        string name,\n        string symbol,\n        uint8 decimals,\n        address bootstrapList\n    );\n\n    constructor(\n        address _grantor,\n        address _approvedToken,\n        address _bootstrapList,\n        uint _votingDurationSecs,\n        uint _revealDurationSecs,\n        string memory _name,\n        string memory _symbol,\n        uint8 _decimals\n    ) public {\n        require(_grantor != address(0), \"grantor can not be 0\");\n        require(_approvedToken != address(0), \"approvedToken cannot be 0\");\n        require(_bootstrapList != address(0), \"bootstrapList can not be 0\");\n        require(_votingDurationSecs > 0, \"votingDurationSecs must be greater than 0\");\n        require(_revealDurationSecs > 0, \"revealDurationSecs must be greater than 0\");\n        require(keccak256(abi.encodePacked((_name))) != keccak256(abi.encodePacked((\"\"))), \"name can not be empty\");\n        require(keccak256(abi.encodePacked((_symbol))) != keccak256(abi.encodePacked((\"\"))), \"symbol can not be empty\");\n        require(_decimals > 0, \"decimals can not be zero\");\n\n        grantor = _grantor;\n        approvedToken = IERC20(_approvedToken);\n        bootstrapList = _bootstrapList;\n        votingDurationSecs = _votingDurationSecs;\n        revealDurationSecs = _revealDurationSecs;\n        name = _name;\n        symbol = _symbol;\n        decimals = _decimals;\n\n        // Necessary for `transferFrom`\n        approvedToken.approve(grantor, 10_000_000_000_000_000_000);\n        emit Deployed(grantor, address(approvedToken), bootstrapList, votingDurationSecs, revealDurationSecs, name, symbol, decimals);\n    }\n\n    // submit grant for registry. get accepted into moloch\n    // apply for members in moloch b4 registry bc summoner only has 1 share\n    // summoner needs to submit proposals, otherwise guild bank doesnt have funds\n    // summoner is the deployer. you need at least 1 share to vote.\n    // member of dao must nominate new member\n    // funds that 1 member puts into moloch can be sent to registry via ragequit\n\n    // Moloch.ragequit requires cooldown period\n    // anyone can send funds during this time, perhaps fuckin up the bonding curve\n    // dao grant forcibly increased w/ WETH sent to TCR\n    function ragequit(address _tcr, uint _shares) public returns(bool) {\n        require(didRagequit == false, \"can only ragequit once\");\n        require(_shares > 0, \"shares must be greater than zero\");\n\n        uint balanceBeforeRagequit = approvedToken.balanceOf(address(this));\n        grantor.call(abi.encodeWithSignature(\"ragequit(uint256)\", _shares));\n        fundingTotal = approvedToken.balanceOf(address(this));\n\n        tcrContract = TCR(_tcr);\n        require(fundingTotal > balanceBeforeRagequit, \"token balance did not increase after ragequit\");\n        require(approvedToken.transfer(address(tcrContract), fundingTotal), \"grant transfer to TCR failed\");\n\n        shares = _shares;\n        didRagequit = true;\n\n        emit Ragequit(grantor, shares, fundingTotal);\n        return didRagequit;\n    }\n\n    function start(address _token) public returns (bool) {\n        require(didStart == false, \"TCR already started\");\n        require(didRagequit == true, \"need to ragequit before starting TCR\");\n\n        tcrContract.start(_token);\n        didStart = true;\n\n        emit TCRStart(address(tcrContract), name, symbol, decimals, bootstrapList);\n        return didStart;\n    }\n}",
  "sourcePath": "/Users/davidkajpust/coding-no-icloud-backup/thegraph/subgraphs/metacartel/appregistry/contracts/Registry.sol",
  "compiler": {
    "name": "solc",
    "version": "0.5.11+commit.c082d0b4.Emscripten.clang"
  },
  "schemaVersion": "3.0.10",
  "updatedAt": "2019-10-02T15:59:03.257Z",
  "devdoc": {
    "methods": {}
  },
  "userdoc": {
    "methods": {}
  }
}