{
  "contractName": "TCR",
  "abi": [
    {
      "constant": true,
      "inputs": [],
      "name": "name",
      "outputs": [
        {
          "internalType": "string",
          "name": "",
          "type": "string"
        }
      ],
      "payable": false,
      "stateMutability": "view",
      "type": "function"
    },
    {
      "constant": true,
      "inputs": [],
      "name": "startDate",
      "outputs": [
        {
          "internalType": "uint256",
          "name": "",
          "type": "uint256"
        }
      ],
      "payable": false,
      "stateMutability": "view",
      "type": "function"
    },
    {
      "constant": true,
      "inputs": [
        {
          "internalType": "uint256",
          "name": "",
          "type": "uint256"
        }
      ],
      "name": "ballotQueue",
      "outputs": [
        {
          "internalType": "enum TCR.BallotType",
          "name": "action",
          "type": "uint8"
        },
        {
          "internalType": "address",
          "name": "applicant",
          "type": "address"
        },
        {
          "internalType": "string",
          "name": "entry",
          "type": "string"
        },
        {
          "internalType": "uint256",
          "name": "deposit",
          "type": "uint256"
        },
        {
          "internalType": "bool",
          "name": "processed",
          "type": "bool"
        },
        {
          "internalType": "string",
          "name": "details",
          "type": "string"
        },
        {
          "internalType": "address",
          "name": "owner",
          "type": "address"
        }
      ],
      "payable": false,
      "stateMutability": "view",
      "type": "function"
    },
    {
      "constant": true,
      "inputs": [],
      "name": "decimals",
      "outputs": [
        {
          "internalType": "uint8",
          "name": "",
          "type": "uint8"
        }
      ],
      "payable": false,
      "stateMutability": "view",
      "type": "function"
    },
    {
      "constant": true,
      "inputs": [],
      "name": "ready",
      "outputs": [
        {
          "internalType": "bool",
          "name": "",
          "type": "bool"
        }
      ],
      "payable": false,
      "stateMutability": "view",
      "type": "function"
    },
    {
      "constant": true,
      "inputs": [],
      "name": "memberIndex",
      "outputs": [
        {
          "internalType": "uint256",
          "name": "",
          "type": "uint256"
        }
      ],
      "payable": false,
      "stateMutability": "view",
      "type": "function"
    },
    {
      "constant": true,
      "inputs": [],
      "name": "bootstrapList",
      "outputs": [
        {
          "internalType": "contract BootstrapList",
          "name": "",
          "type": "address"
        }
      ],
      "payable": false,
      "stateMutability": "view",
      "type": "function"
    },
    {
      "constant": true,
      "inputs": [
        {
          "internalType": "uint256",
          "name": "",
          "type": "uint256"
        }
      ],
      "name": "tallyQueue",
      "outputs": [
        {
          "internalType": "uint256",
          "name": "yesVotes",
          "type": "uint256"
        },
        {
          "internalType": "uint256",
          "name": "noVotes",
          "type": "uint256"
        },
        {
          "internalType": "uint256",
          "name": "unrevealedAmountTotal",
          "type": "uint256"
        }
      ],
      "payable": false,
      "stateMutability": "view",
      "type": "function"
    },
    {
      "constant": true,
      "inputs": [],
      "name": "owner",
      "outputs": [
        {
          "internalType": "address",
          "name": "",
          "type": "address"
        }
      ],
      "payable": false,
      "stateMutability": "view",
      "type": "function"
    },
    {
      "constant": true,
      "inputs": [],
      "name": "symbol",
      "outputs": [
        {
          "internalType": "string",
          "name": "",
          "type": "string"
        }
      ],
      "payable": false,
      "stateMutability": "view",
      "type": "function"
    },
    {
      "constant": true,
      "inputs": [
        {
          "internalType": "string",
          "name": "",
          "type": "string"
        }
      ],
      "name": "tcr",
      "outputs": [
        {
          "internalType": "address",
          "name": "applicant",
          "type": "address"
        },
        {
          "internalType": "bool",
          "name": "valid",
          "type": "bool"
        },
        {
          "internalType": "string",
          "name": "details",
          "type": "string"
        },
        {
          "internalType": "address",
          "name": "owner",
          "type": "address"
        }
      ],
      "payable": false,
      "stateMutability": "view",
      "type": "function"
    },
    {
      "constant": true,
      "inputs": [],
      "name": "votingDurationSecs",
      "outputs": [
        {
          "internalType": "uint256",
          "name": "",
          "type": "uint256"
        }
      ],
      "payable": false,
      "stateMutability": "view",
      "type": "function"
    },
    {
      "constant": true,
      "inputs": [],
      "name": "revealDurationSecs",
      "outputs": [
        {
          "internalType": "uint256",
          "name": "",
          "type": "uint256"
        }
      ],
      "payable": false,
      "stateMutability": "view",
      "type": "function"
    },
    {
      "constant": true,
      "inputs": [
        {
          "internalType": "uint256",
          "name": "",
          "type": "uint256"
        }
      ],
      "name": "pollQueue",
      "outputs": [
        {
          "internalType": "uint256",
          "name": "startTime",
          "type": "uint256"
        },
        {
          "internalType": "uint256",
          "name": "endTime",
          "type": "uint256"
        },
        {
          "internalType": "uint256",
          "name": "revealEndTime",
          "type": "uint256"
        }
      ],
      "payable": false,
      "stateMutability": "view",
      "type": "function"
    },
    {
      "constant": true,
      "inputs": [],
      "name": "currentBallotIndex",
      "outputs": [
        {
          "internalType": "uint256",
          "name": "",
          "type": "uint256"
        }
      ],
      "payable": false,
      "stateMutability": "view",
      "type": "function"
    },
    {
      "constant": true,
      "inputs": [
        {
          "internalType": "uint256",
          "name": "",
          "type": "uint256"
        }
      ],
      "name": "bootstrapMembers",
      "outputs": [
        {
          "internalType": "address",
          "name": "",
          "type": "address"
        }
      ],
      "payable": false,
      "stateMutability": "view",
      "type": "function"
    },
    {
      "constant": true,
      "inputs": [],
      "name": "token",
      "outputs": [
        {
          "internalType": "contract DaoToken",
          "name": "",
          "type": "address"
        }
      ],
      "payable": false,
      "stateMutability": "view",
      "type": "function"
    },
    {
      "inputs": [
        {
          "internalType": "address",
          "name": "_owner",
          "type": "address"
        },
        {
          "internalType": "uint256",
          "name": "_votingDurationSecs",
          "type": "uint256"
        },
        {
          "internalType": "uint256",
          "name": "_revealDurationSecs",
          "type": "uint256"
        },
        {
          "internalType": "address",
          "name": "_bootstrapList",
          "type": "address"
        }
      ],
      "payable": false,
      "stateMutability": "nonpayable",
      "type": "constructor"
    },
    {
      "anonymous": false,
      "inputs": [
        {
          "indexed": false,
          "internalType": "address",
          "name": "owner",
          "type": "address"
        },
        {
          "indexed": false,
          "internalType": "uint256",
          "name": "votingDurationSecs",
          "type": "uint256"
        },
        {
          "indexed": false,
          "internalType": "uint256",
          "name": "revealDurationSecs",
          "type": "uint256"
        },
        {
          "indexed": false,
          "internalType": "string",
          "name": "name",
          "type": "string"
        },
        {
          "indexed": false,
          "internalType": "string",
          "name": "symbol",
          "type": "string"
        },
        {
          "indexed": false,
          "internalType": "uint8",
          "name": "decimals",
          "type": "uint8"
        },
        {
          "indexed": false,
          "internalType": "address",
          "name": "bootstrapList",
          "type": "address"
        }
      ],
      "name": "Deployed",
      "type": "event"
    },
    {
      "anonymous": false,
      "inputs": [
        {
          "indexed": false,
          "internalType": "uint256",
          "name": "startDate",
          "type": "uint256"
        }
      ],
      "name": "Started",
      "type": "event"
    },
    {
      "anonymous": false,
      "inputs": [
        {
          "indexed": false,
          "internalType": "uint256",
          "name": "processCount",
          "type": "uint256"
        },
        {
          "indexed": false,
          "internalType": "uint256",
          "name": "previousIndex",
          "type": "uint256"
        },
        {
          "indexed": false,
          "internalType": "uint256",
          "name": "updatedIndex",
          "type": "uint256"
        },
        {
          "indexed": false,
          "internalType": "bool",
          "name": "ready",
          "type": "bool"
        }
      ],
      "name": "Bootstrap",
      "type": "event"
    },
    {
      "anonymous": false,
      "inputs": [
        {
          "indexed": false,
          "internalType": "address",
          "name": "buyer",
          "type": "address"
        },
        {
          "indexed": false,
          "internalType": "uint256",
          "name": "amount",
          "type": "uint256"
        },
        {
          "indexed": false,
          "internalType": "uint256",
          "name": "price",
          "type": "uint256"
        }
      ],
      "name": "Buy",
      "type": "event"
    },
    {
      "anonymous": false,
      "inputs": [
        {
          "indexed": false,
          "internalType": "address",
          "name": "seller",
          "type": "address"
        },
        {
          "indexed": false,
          "internalType": "uint256",
          "name": "amount",
          "type": "uint256"
        },
        {
          "indexed": false,
          "internalType": "uint256",
          "name": "price",
          "type": "uint256"
        }
      ],
      "name": "Sell",
      "type": "event"
    },
    {
      "anonymous": false,
      "inputs": [
        {
          "indexed": false,
          "internalType": "enum TCR.BallotType",
          "name": "action",
          "type": "uint8"
        },
        {
          "indexed": false,
          "internalType": "string",
          "name": "entry",
          "type": "string"
        },
        {
          "indexed": false,
          "internalType": "uint256",
          "name": "amount",
          "type": "uint256"
        },
        {
          "indexed": false,
          "internalType": "string",
          "name": "details",
          "type": "string"
        },
        {
          "indexed": false,
          "internalType": "address",
          "name": "owner",
          "type": "address"
        },
        {
          "indexed": false,
          "internalType": "uint256",
          "name": "currentPollId",
          "type": "uint256"
        },
        {
          "indexed": false,
          "internalType": "uint256",
          "name": "pollId",
          "type": "uint256"
        }
      ],
      "name": "Submit",
      "type": "event"
    },
    {
      "anonymous": false,
      "inputs": [
        {
          "indexed": false,
          "internalType": "address",
          "name": "voter",
          "type": "address"
        },
        {
          "indexed": false,
          "internalType": "uint256",
          "name": "amount",
          "type": "uint256"
        },
        {
          "indexed": false,
          "internalType": "uint256",
          "name": "pollId",
          "type": "uint256"
        }
      ],
      "name": "Commit",
      "type": "event"
    },
    {
      "anonymous": false,
      "inputs": [
        {
          "indexed": false,
          "internalType": "address",
          "name": "voter",
          "type": "address"
        },
        {
          "indexed": false,
          "internalType": "enum TCR.Vote",
          "name": "vote",
          "type": "uint8"
        },
        {
          "indexed": false,
          "internalType": "uint256",
          "name": "amount",
          "type": "uint256"
        },
        {
          "indexed": false,
          "internalType": "uint256",
          "name": "pollId",
          "type": "uint256"
        }
      ],
      "name": "Reveal",
      "type": "event"
    },
    {
      "anonymous": false,
      "inputs": [
        {
          "indexed": false,
          "internalType": "uint256",
          "name": "pollId",
          "type": "uint256"
        }
      ],
      "name": "Processed",
      "type": "event"
    },
    {
      "anonymous": false,
      "inputs": [
        {
          "indexed": false,
          "internalType": "address",
          "name": "voter",
          "type": "address"
        },
        {
          "indexed": false,
          "internalType": "uint256",
          "name": "pollId",
          "type": "uint256"
        },
        {
          "indexed": false,
          "internalType": "uint256",
          "name": "amount",
          "type": "uint256"
        }
      ],
      "name": "Claim",
      "type": "event"
    },
    {
      "constant": false,
      "inputs": [
        {
          "internalType": "address",
          "name": "_token",
          "type": "address"
        }
      ],
      "name": "start",
      "outputs": [
        {
          "internalType": "bool",
          "name": "",
          "type": "bool"
        }
      ],
      "payable": false,
      "stateMutability": "nonpayable",
      "type": "function"
    },
    {
      "constant": false,
      "inputs": [
        {
          "internalType": "uint256",
          "name": "_numberOfMembersToBootstrap",
          "type": "uint256"
        }
      ],
      "name": "bootstrap",
      "outputs": [
        {
          "internalType": "uint256",
          "name": "index",
          "type": "uint256"
        }
      ],
      "payable": false,
      "stateMutability": "nonpayable",
      "type": "function"
    },
    {
      "constant": false,
      "inputs": [
        {
          "internalType": "uint256",
          "name": "_buyAmount",
          "type": "uint256"
        }
      ],
      "name": "buy",
      "outputs": [],
      "payable": false,
      "stateMutability": "nonpayable",
      "type": "function"
    },
    {
      "constant": false,
      "inputs": [
        {
          "internalType": "uint256",
          "name": "_sellAmount",
          "type": "uint256"
        }
      ],
      "name": "sell",
      "outputs": [],
      "payable": false,
      "stateMutability": "nonpayable",
      "type": "function"
    },
    {
      "constant": false,
      "inputs": [
        {
          "internalType": "enum TCR.BallotType",
          "name": "_action",
          "type": "uint8"
        },
        {
          "internalType": "string",
          "name": "_entrySubmission",
          "type": "string"
        },
        {
          "internalType": "uint256",
          "name": "_submissionAmount",
          "type": "uint256"
        },
        {
          "internalType": "string",
          "name": "_details",
          "type": "string"
        },
        {
          "internalType": "address",
          "name": "_owner",
          "type": "address"
        }
      ],
      "name": "submit",
      "outputs": [
        {
          "internalType": "uint256",
          "name": "",
          "type": "uint256"
        }
      ],
      "payable": false,
      "stateMutability": "nonpayable",
      "type": "function"
    },
    {
      "constant": false,
      "inputs": [
        {
          "internalType": "uint256",
          "name": "_voteAmount",
          "type": "uint256"
        },
        {
          "internalType": "uint8",
          "name": "_v",
          "type": "uint8"
        },
        {
          "internalType": "bytes32",
          "name": "_r",
          "type": "bytes32"
        },
        {
          "internalType": "bytes32",
          "name": "_s",
          "type": "bytes32"
        }
      ],
      "name": "commit",
      "outputs": [
        {
          "internalType": "bool",
          "name": "",
          "type": "bool"
        }
      ],
      "payable": false,
      "stateMutability": "nonpayable",
      "type": "function"
    },
    {
      "constant": false,
      "inputs": [
        {
          "internalType": "string",
          "name": "_vote",
          "type": "string"
        }
      ],
      "name": "reveal",
      "outputs": [
        {
          "internalType": "bool",
          "name": "",
          "type": "bool"
        }
      ],
      "payable": false,
      "stateMutability": "nonpayable",
      "type": "function"
    },
    {
      "constant": false,
      "inputs": [],
      "name": "processBallot",
      "outputs": [
        {
          "internalType": "bool",
          "name": "",
          "type": "bool"
        }
      ],
      "payable": false,
      "stateMutability": "nonpayable",
      "type": "function"
    },
    {
      "constant": false,
      "inputs": [
        {
          "internalType": "uint256",
          "name": "_pollId",
          "type": "uint256"
        }
      ],
      "name": "claim",
      "outputs": [
        {
          "internalType": "bool",
          "name": "",
          "type": "bool"
        }
      ],
      "payable": false,
      "stateMutability": "nonpayable",
      "type": "function"
    },
    {
      "constant": false,
      "inputs": [
        {
          "internalType": "string",
          "name": "_listing",
          "type": "string"
        },
        {
          "internalType": "string",
          "name": "_details",
          "type": "string"
        },
        {
          "internalType": "address",
          "name": "_owner",
          "type": "address"
        },
        {
          "internalType": "address",
          "name": "_applicant",
          "type": "address"
        }
      ],
      "name": "update",
      "outputs": [
        {
          "internalType": "bool",
          "name": "",
          "type": "bool"
        }
      ],
      "payable": false,
      "stateMutability": "nonpayable",
      "type": "function"
    },
    {
      "constant": true,
      "inputs": [],
      "name": "memberListLength",
      "outputs": [
        {
          "internalType": "uint256",
          "name": "",
          "type": "uint256"
        }
      ],
      "payable": false,
      "stateMutability": "view",
      "type": "function"
    },
    {
      "constant": true,
      "inputs": [],
      "name": "ballotQueueLength",
      "outputs": [
        {
          "internalType": "uint256",
          "name": "",
          "type": "uint256"
        }
      ],
      "payable": false,
      "stateMutability": "view",
      "type": "function"
    },
    {
      "constant": true,
      "inputs": [
        {
          "internalType": "uint256",
          "name": "_pollId",
          "type": "uint256"
        },
        {
          "internalType": "address",
          "name": "_voter",
          "type": "address"
        }
      ],
      "name": "didClaim",
      "outputs": [
        {
          "internalType": "bool",
          "name": "",
          "type": "bool"
        }
      ],
      "payable": false,
      "stateMutability": "view",
      "type": "function"
    },
    {
      "constant": true,
      "inputs": [
        {
          "internalType": "string",
          "name": "_message",
          "type": "string"
        },
        {
          "internalType": "uint8",
          "name": "_v",
          "type": "uint8"
        },
        {
          "internalType": "bytes32",
          "name": "_r",
          "type": "bytes32"
        },
        {
          "internalType": "bytes32",
          "name": "_s",
          "type": "bytes32"
        }
      ],
      "name": "verify",
      "outputs": [
        {
          "internalType": "address",
          "name": "voter",
          "type": "address"
        }
      ],
      "payable": false,
      "stateMutability": "pure",
      "type": "function"
    }
  ],
  "bytecode": "0x60806040523480156200001157600080fd5b506040516200440a3803806200440a833981810160405260808110156200003757600080fd5b50805160208201516040830151606090930151919290916001600160a01b038416620000c457604080517f08c379a000000000000000000000000000000000000000000000000000000000815260206004820152601360248201527f5f6f776e65722063616e206e6f74206265203000000000000000000000000000604482015290519081900360640190fd5b600083116200011f576040517f08c379a000000000000000000000000000000000000000000000000000000000815260040180806020018281038252602a815260200180620043e0602a913960400191505060405180910390fd5b600080546001600160a01b0319166001600160a01b0386811691909117918290556008859055600984905560038054610100600160a81b03191661010085841681029190911791829055604080519484168086526020860189905290850187905260ff831660a086018190529282900490931660c0850181905260e060608601818152600180546002818316158702600019019091168190049389018490527feae1833afac8f353c76fdd197c3160af4e50b44ba88279dd0381d14714e95e58988c978c979396929590949293919291608084019190840190889080156200024b5780601f106200021f576101008083540402835291602001916200024b565b820191906000526020600020905b8154815290600101906020018083116200022d57829003601f168201915b5050838103825286546002600019610100600184161502019091160480825260209091019087908015620002c35780601f106200029757610100808354040283529160200191620002c3565b820191906000526020600020905b815481529060010190602001808311620002a557829003601f168201915b5050995050505050505050505060405180910390a1505050506140f480620002ec6000396000f3fe608060405234801561001057600080fd5b50600436106101e25760003560e01c8063749d047c1161010f578063b95a5403116100a2578063dd0b281e11610071578063dd0b281e14610abb578063ddc7102e14610ae1578063e4849b3214610afe578063fc0c546a14610b1b576101e2565b8063b95a540314610a6f578063c6e0027914610a77578063d68aa89214610a94578063d96a094a14610a9c576101e2565b80639f026b19116100de5780639f026b19146107a3578063aedf42c4146107cf578063b03205b014610928578063b6c3fed914610a67576101e2565b8063749d047c1461075057806384c03153146107585780638da5cb5b1461079357806395d89b411461079b576101e2565b80633686a39e116101875780635440bc82116101565780635440bc821461052c578063609f8fe2146106725780636defbf80146107405780637232006314610748576101e2565b80633686a39e14610446578063379607f5146104635780634a5fc905146104805780634c26124714610488576101e2565b806306fdde03116101c357806306fdde031461024f5780630b97bc86146102cc5780630e1b42a3146102d4578063313ce56714610428576101e2565b806211e333146101e7578062551b461461022d578062a5786914610235575b600080fd5b610219600480360360808110156101fd57600080fd5b5080359060ff6020820135169060408101359060600135610b23565b604080519115158252519081900360200190f35b610219610f2e565b61023d6115eb565b60408051918252519081900360200190f35b6102576115f1565b6040805160208082528351818301528351919283929083019185019080838360005b83811015610291578181015183820152602001610279565b50505050905090810190601f1680156102be5780820380516001836020036101000a031916815260200191505b509250505060405180910390f35b61023d61167e565b6102f1600480360360208110156102ea57600080fd5b5035611684565b6040518088600281111561030157fe5b60ff168152602001876001600160a01b03166001600160a01b03168152602001806020018681526020018515151515815260200180602001846001600160a01b03166001600160a01b03168152602001838103835288818151815260200191508051906020019080838360005b8381101561038657818101518382015260200161036e565b50505050905090810190601f1680156103b35780820380516001836020036101000a031916815260200191505b50838103825285518152855160209182019187019080838360005b838110156103e65781810151838201526020016103ce565b50505050905090810190601f1680156104135780820380516001836020036101000a031916815260200191505b50995050505050505050505060405180910390f35b6104306117fe565b6040805160ff9092168252519081900360200190f35b61023d6004803603602081101561045c57600080fd5b5035611807565b6102196004803603602081101561047957600080fd5b5035611bb6565b61023d612073565b6102196004803603602081101561049e57600080fd5b810190602081018135600160201b8111156104b857600080fd5b8201836020820111156104ca57600080fd5b803590602001918460018302840111600160201b831117156104eb57600080fd5b91908080601f016020809104026020016040519081016040528093929190818152602001838380828437600092019190915250929550612079945050505050565b61023d600480360360a081101561054257600080fd5b60ff8235169190810190604081016020820135600160201b81111561056657600080fd5b82018360208201111561057857600080fd5b803590602001918460018302840111600160201b8311171561059957600080fd5b91908080601f01602080910402602001604051908101604052809392919081815260200183838082843760009201919091525092958435959094909350604081019250602001359050600160201b8111156105f357600080fd5b82018360208201111561060557600080fd5b803590602001918460018302840111600160201b8311171561062657600080fd5b91908080601f016020809104026020016040519081016040528093929190818152602001838380828437600092019190915250929550505090356001600160a01b031691506125f89050565b6107246004803603608081101561068857600080fd5b810190602081018135600160201b8111156106a257600080fd5b8201836020820111156106b457600080fd5b803590602001918460018302840111600160201b831117156106d557600080fd5b91908080601f0160208091040260200160405190810160405280939291908181526020018383808284376000920191909152509295505060ff8335169350505060208101359060400135612d76565b604080516001600160a01b039092168252519081900360200190f35b610219612f64565b61023d612f6d565b610724612f73565b6107756004803603602081101561076e57600080fd5b5035612f87565b60408051938452602084019290925282820152519081900360600190f35b610724612fb7565b610257612fc6565b610219600480360360408110156107b957600080fd5b50803590602001356001600160a01b031661301e565b610873600480360360208110156107e557600080fd5b810190602081018135600160201b8111156107ff57600080fd5b82018360208201111561081157600080fd5b803590602001918460018302840111600160201b8311171561083257600080fd5b91908080601f016020809104026020016040519081016040528093929190818152602001838380828437600092019190915250929550613064945050505050565b60405180856001600160a01b03166001600160a01b031681526020018415151515815260200180602001836001600160a01b03166001600160a01b03168152602001828103825284818151815260200191508051906020019080838360005b838110156108ea5781810151838201526020016108d2565b50505050905090810190601f1680156109175780820380516001836020036101000a031916815260200191505b509550505050505060405180910390f35b6102196004803603608081101561093e57600080fd5b810190602081018135600160201b81111561095857600080fd5b82018360208201111561096a57600080fd5b803590602001918460018302840111600160201b8311171561098b57600080fd5b91908080601f0160208091040260200160405190810160405280939291908181526020018383808284376000920191909152509295949360208101935035915050600160201b8111156109dd57600080fd5b8201836020820111156109ef57600080fd5b803590602001918460018302840111600160201b83111715610a1057600080fd5b91908080601f016020809104026020016040519081016040528093929190818152602001838380828437600092019190915250929550506001600160a01b03833581169450602090930135909216915061313e9050565b61023d61336b565b61023d613371565b61077560048036036020811015610a8d57600080fd5b5035613377565b61023d613384565b610ab960048036036020811015610ab257600080fd5b503561338a565b005b61021960048036036020811015610ad157600080fd5b50356001600160a01b03166134df565b61072460048036036020811015610af757600080fd5b5035613bfd565b610ab960048036036020811015610b1457600080fd5b5035613c24565b610724613cad565b60075460009060ff16610b69576040805162461bcd60e51b81526020600482015260096024820152686e6f7420726561647960b81b604482015290519081900360640190fd5b6000600d600b5481548110610b7a57fe5b906000526020600020906007020190506000600c600b5481548110610b9b57fe5b906000526020600020906003020190506000600e600b5481548110610bbc57fe5b906000526020600020906003020190508783600201541115610c25576040805162461bcd60e51b815260206004820152601b60248201527f696e73756666696369656e74206465706f73697420616d6f756e740000000000604482015290519081900360640190fd5b600554604080516323b872dd60e01b8152336004820152306024820152604481018b905290516001600160a01b03909216916323b872dd916064808201926020929091908290030181600087803b158015610c7f57600080fd5b505af1158015610c93573d6000803e3d6000fd5b505050506040513d6020811015610ca957600080fd5b5051610cfc576040805162461bcd60e51b815260206004820152601d60248201527f6465706f73697420746f6b656e207472616e73666572206661696c6564000000604482015290519081900360640190fd5b60ff8716610d3d576040805162461bcd60e51b815260206004820152600960248201526834b73b30b634b2103b60b91b604482015290519081900360640190fd5b85610d7b576040805162461bcd60e51b815260206004820152600960248201526834b73b30b634b2103960b91b604482015290519081900360640190fd5b84610db9576040805162461bcd60e51b8152602060048201526009602482015268696e76616c6964207360b81b604482015290519081900360640190fd5b42816001015411610e07576040805162461bcd60e51b81526020600482015260136024820152723837b636103737903637b733b2b91037b832b760691b604482015290519081900360640190fd5b610e0f613e9d565b506040805160c081018252600080825260208083018c905260ff8b1683850152606083018a90526080830189905260a08301829052338252600687019052919091208151815483929190829060ff19166001836002811115610e6d57fe5b02179055506020820151600182015560408201516002808301805460ff90931660ff19938416179055606084015160038401556080840151600484015560a0909301516005909201805492151592909116919091179055830154610ed7908a63ffffffff613cbc16565b6002840155600b5460408051338152602081018c905280820192909252517f3d5f001e977afcb6eea6a84325bcff0e232f6b3d8453a04a7ea2e5b7792eba0a9181900360600190a150600198975050505050505050565b60075460009060ff16610f74576040805162461bcd60e51b81526020600482015260096024820152686e6f7420726561647960b81b604482015290519081900360640190fd5b6000600d600b5481548110610f8557fe5b906000526020600020906007020190506000600e600b5481548110610fa657fe5b906000526020600020906003020190506000600c600b5481548110610fc757fe5b6000918252602082206003909102019150835460ff166002811115610fe857fe5b1415611032576040805162461bcd60e51b81526020600482015260146024820152736e6f2062616c6c6f7420746f2070726f6365737360601b604482015290519081900360640190fd5b8154158015906110455750816002015442115b61108b576040805162461bcd60e51b815260206004820152601260248201527162616c6c6f7420696e2070726f677265737360701b604482015290519081900360640190fd5b600383015460ff16156110e5576040805162461bcd60e51b815260206004820152601860248201527f62616c6c6f7420616c72656164792070726f6365737365640000000000000000604482015290519081900360640190fd5b60038301805460ff19166001908117909155600b546111099163ffffffff613cbc16565b600b5560018101548154106114ff576001835460ff16600281111561112a57fe5b141561130957611138613ed4565b604080516080810182528554610100908190046001600160a01b03168252600160208084018290526004890180548651600294821615909502600019011692909204601f810182900482028401820186528084529394850193908301828280156111e35780601f106111b8576101008083540402835291602001916111e3565b820191906000526020600020905b8154815290600101906020018083116111c657829003601f168201915b505050505081526020018560050160009054906101000a90046001600160a01b03166001600160a01b0316815250905080600f8560010160405180828054600181600116156101000203166002900480156112755780601f10611253576101008083540402835291820191611275565b820191906000526020600020905b815481529060010190602001808311611261575b50509283525050604080516020928190038301902083518154858501516001600160a01b03199091166001600160a01b039092169190911760ff60a01b1916600160a01b9115159190910217815590830151805191926112dd92600185019290910190613efc565b5060609190910151600290910180546001600160a01b0319166001600160a01b03909216919091179055505b6002835460ff16600281111561131b57fe5b14156114ff57611329613ed4565b604080516080810182528554610100908190046001600160a01b0316825260006020808401919091526004880180548551600260018316159095026000190190911693909304601f81018390048302840183018652808452939485019390918301828280156113d95780601f106113ae576101008083540402835291602001916113d9565b820191906000526020600020905b8154815290600101906020018083116113bc57829003601f168201915b505050505081526020018560050160009054906101000a90046001600160a01b03166001600160a01b0316815250905080600f85600101604051808280546001816001161561010002031660029004801561146b5780601f1061144957610100808354040283529182019161146b565b820191906000526020600020905b815481529060010190602001808311611457575b50509283525050604080516020928190038301902083518154858501516001600160a01b03199091166001600160a01b039092169190911760ff60a01b1916600160a01b9115159190910217815590830151805191926114d392600185019290910190613efc565b5060609190910151600290910180546001600160a01b0319166001600160a01b03909216919091179055505b600b5460408051918252517f5afe3b1bf87069693c075da5c22a98d63d1aef98a30dbbe538d0781a98b77ee59181900360200190a1600d54600b5410156115e057611548613f7a565b604051806060016040528042815260200161156e60085442613cbc90919063ffffffff16565b815260200161159a60095461158e60085442613cbc90919063ffffffff16565b9063ffffffff613cbc16565b815250905080600e600b54815481106115af57fe5b9060005260206000209060030201600082015181600001556020820151816001015560408201518160020155905050505b600193505050505b90565b600d5490565b60018054604080516020600284861615610100026000190190941693909304601f810184900484028201840190925281815292918301828280156116765780601f1061164b57610100808354040283529160200191611676565b820191906000526020600020905b81548152906001019060200180831161165957829003601f168201915b505050505081565b60065481565b600d818154811061169157fe5b6000918252602091829020600791909102018054600180830180546040805160026101009584161586026000190190931692909204601f810188900488028301880190915280825260ff85169750929093046001600160a01b0316949091908301828280156117415780601f1061171657610100808354040283529160200191611741565b820191906000526020600020905b81548152906001019060200180831161172457829003601f168201915b5050505060028381015460038501546004860180546040805160206101006001851615026000190190931696909604601f81018390048302870183019091528086529697939660ff90931695509293929091908301828280156117e55780601f106117ba576101008083540402835291602001916117e5565b820191906000526020600020905b8154815290600101906020018083116117c857829003601f168201915b505050600590930154919250506001600160a01b031687565b60035460ff1681565b6000806006541161185f576040805162461bcd60e51b815260206004820152601c60248201527f636f6e747261637420686173206e6f7420796574207374617274656400000000604482015290519081900360640190fd5b60075460ff16156118a15760405162461bcd60e51b8152600401808060200182810382526022815260200180613ff36022913960400191505060405180910390fd5b6060600360019054906101000a90046001600160a01b03166001600160a01b031663bdd4d18d6040518163ffffffff1660e01b815260040160006040518083038186803b1580156118f157600080fd5b505afa158015611905573d6000803e3d6000fd5b505050506040513d6000823e601f3d908101601f19168201604052602081101561192e57600080fd5b8101908080516040519392919084600160201b82111561194d57600080fd5b90830190602082018581111561196257600080fd5b82518660208202830111600160201b8211171561197e57600080fd5b82525081516020918201928201910280838360005b838110156119ab578181015183820152602001611993565b505050509050016040525050509050600080600a54905082516119d9600a5487613cbc90919063ffffffff16565b11156119e857825191506119f0565b600a54850191505b600a545b82811015611b435760055484516001600160a01b03909116906340c10f1990869084908110611a1f57fe5b602002602001015160016040518363ffffffff1660e01b815260040180836001600160a01b03166001600160a01b0316815260200182815260200192505050602060405180830381600087803b158015611a7857600080fd5b505af1158015611a8c573d6000803e3d6000fd5b505050506040513d6020811015611aa257600080fd5b5051611af0576040805162461bcd60e51b81526020600482015260186024820152776572726f7220696e206d696e74696e672070726f6365737360401b604482015290519081900360640190fd5b6004848281518110611afe57fe5b60209081029190910181015182546001808201855560009485529290932090920180546001600160a01b0319166001600160a01b0390931692909217909155016119f4565b50600a8290558251821415611b60576007805460ff191660011790555b600754604080518781526020810184905280820185905260ff90921615156060830152517f276ce9efaba9c96f8a46f510878192de7030669cdd7676cbe520edb8002455a49181900360800190a1509392505050565b60075460009060ff16611bfc576040805162461bcd60e51b81526020600482015260096024820152686e6f7420726561647960b81b604482015290519081900360640190fd5b6000600d8381548110611c0b57fe5b906000526020600020906007020190506000600c8481548110611c2a57fe5b60009182526020909120600384810154920201915060ff161515600114611c98576040805162461bcd60e51b815260206004820152601f60248201527f706f6c6c20686173206e6f7420796574206265656e2070726f63657373656400604482015290519081900360640190fd5b33600090815260068301602052604090206005015460ff16151560011415611cf9576040805162461bcd60e51b815260206004820152600f60248201526e185b1c9958591e4818db185a5b5959608a1b604482015290519081900360640190fd5b336000908152600683016020526040902060010154611d55576040805162461bcd60e51b81526020600482015260136024820152721d9bdd19481b9bdd081c9959da5cdd195c9959606a1b604482015290519081900360640190fd5b600133600090815260068401602052604090205460ff166002811115611d7757fe5b1480611da25750600233600090815260068401602052604090205460ff166002811115611da057fe5b145b611de6576040805162461bcd60e51b815260206004820152601060248201526f19985a5b1959081d1bc81c995d99585b60821b604482015290519081900360640190fd5b60008160010154826000015410611e8757600133600090815260068501602052604090205460ff166002811115611e1957fe5b14611e555760405162461bcd60e51b815260040180806020018281038252602a815260200180614096602a913960400191505060405180910390fd5b6002820154825410611e7e5781546002830154611e779163ffffffff613d1d16565b9050611e82565b5060005b611f18565b600233600090815260068501602052604090205460ff166002811115611ea957fe5b14611ee55760405162461bcd60e51b815260040180806020018281038252602b81526020018061406b602b913960400191505060405180910390fd5b8160020154826001015410611f145760018201546002830154611f0d9163ffffffff613d1d16565b9050611f18565b5060005b336000908152600684016020526040812060010154611f3d908363ffffffff613cbc16565b6005546040805163a9059cbb60e01b81523360048201526024810184905290519293506001600160a01b039091169163a9059cbb916044808201926020929091908290030181600087803b158015611f9457600080fd5b505af1158015611fa8573d6000803e3d6000fd5b505050506040513d6020811015611fbe57600080fd5b5051612009576040805162461bcd60e51b815260206004820152601560248201527418db185a5b481d1c985b9cd9995c8819985a5b1959605a1b604482015290519081900360640190fd5b336000818152600686016020908152604091829020600501805460ff1916600117905581519283528201889052818101839052517f34fcbac0073d7c3d388e51312faf357774904998eeb8fca628b9e6f65ee1cbf79181900360600190a150600195945050505050565b60045490565b60075460009060ff166120bf576040805162461bcd60e51b81526020600482015260096024820152686e6f7420726561647960b81b604482015290519081900360640190fd5b6000600d600b54815481106120d057fe5b906000526020600020906007020190506000600c600b54815481106120f157fe5b906000526020600020906003020190506000600e600b548154811061211257fe5b60009182526020808320338452600687019091526040832060028101546003808301546004840154959091029093019550909392612155928a9260ff1691612d76565b905042836001015410801561216d5750826002015442105b6121be576040805162461bcd60e51b815260206004820152601860248201527f706f6c6c206e6f7420696e2072657665616c2070686173650000000000000000604482015290519081900360640190fd5b6000825460ff1660028111156121d057fe5b1461221a576040805162461bcd60e51b81526020600482015260156024820152741d9bdd1948185b1c9958591e481c995d99585b1959605a1b604482015290519081900360640190fd5b6001600160a01b0381163314612277576040805162461bcd60e51b815260206004820152601860248201527f7369676e617475726520646f6573206e6f74206d617463680000000000000000604482015290519081900360640190fd5b604051602001808060200182810382526001815260200180603160f81b81525060200191505060405160208183030381529060405280519060200120876040516020018080602001828103825283818151815260200191508051906020019080838360005b838110156122f45781810151838201526020016122dc565b50505050905090810190601f1680156123215780820380516001836020036101000a031916815260200191505b509250505060405160208183030381529060405280519060200120148061240a5750604051602001808060200182810382526001815260200180601960f91b81525060200191505060405160208183030381529060405280519060200120876040516020018080602001828103825283818151815260200191508051906020019080838360005b838110156123c05781810151838201526020016123a8565b50505050905090810190601f1680156123ed5780820380516001836020036101000a031916815260200191505b509250505060405160208183030381529060405280519060200120145b61244a576040805162461bcd60e51b815260206004820152600c60248201526b696e76616c696420766f746560a01b604482015290519081900360640190fd5b604051602001808060200182810382526001815260200180603160f81b81525060200191505060405160208183030381529060405280519060200120876040516020018080602001828103825283818151815260200191508051906020019080838360005b838110156124c75781810151838201526020016124af565b50505050905090810190601f1680156124f45780820380516001836020036101000a031916815260200191505b509250505060405160208183030381529060405280519060200120141561253757815460ff191660019081178355820154845461253091613cbc565b845561255b565b815460ff191660021782556001808301549085015461255591613cbc565b60018501555b600182015460028501546125749163ffffffff613d5f16565b60028086019190915582546001840154600b54604051338082527fc9e208826fbe313175465846e93c3bd97ec0716d921bccfcbd6cf57cb8d755a495909460ff1693929190602082019085908111156125c957fe5b60ff16815260200183815260200182815260200194505050505060405180910390a15060019695505050505050565b60075460009060ff1661263e576040805162461bcd60e51b81526020600482015260096024820152686e6f7420726561647960b81b604482015290519081900360640190fd5b60008080808060018b600281111561265257fe5b1480612669575060028b600281111561266757fe5b145b6126b2576040805162461bcd60e51b815260206004820152601560248201527434b73b30b634b2103130b63637ba1030b1ba34b7b760591b604482015290519081900360640190fd5b60018b60028111156126c057fe5b141561278957600f8a6040518082805190602001908083835b602083106126f85780518252601f1990920191602091820191016126d9565b51815160209384036101000a6000190180199092169116179052920194855250604051938490030190922054600160a01b900460ff161591506127849050576040805162461bcd60e51b815260206004820152601960248201527f7375626d697373696f6e20616c72656164792065786973747300000000000000604482015290519081900360640190fd5b600191505b60028b600281111561279757fe5b141561286457600f8a6040518082805190602001908083835b602083106127cf5780518252601f1990920191602091820191016127b0565b51815160209384036101000a60001901801990921691161790529201948552506040519384900301909220546001600160a01b90910460ff1615151491506128609050576040805162461bcd60e51b815260206004820152601960248201527f7375626d697373696f6e20646f6573206e6f7420657869737400000000000000604482015290519081900360640190fd5b5060015b600089116128a9576040805162461bcd60e51b815260206004820152600d60248201526c3232b837b9b4ba1032b93937b960991b604482015290519081900360640190fd5b600554604080516323b872dd60e01b8152336004820152306024820152604481018c905290516001600160a01b03909216916323b872dd916064808201926020929091908290030181600087803b15801561290357600080fd5b505af1158015612917573d6000803e3d6000fd5b505050506040513d602081101561292d57600080fd5b505161296a5760405162461bcd60e51b81526004018080602001828103825260358152602001806140366035913960400191505060405180910390fd5b600d54600b5414156129ad5760085442955061298d90869063ffffffff613cbc16565b93506129aa60095461158e60085442613cbc90919063ffffffff16565b92505b6129b5613f9b565b6040518060e001604052808d60028111156129cc57fe5b8152336020820152604081018d9052606081018c90526000608082015260a081018b90526001600160a01b038a1660c0909101529050612a0a613f7a565b60405180606001604052808581526020018481526020018c8152509050612a2f613f7a565b506040805160608101825288815260208101889052908101869052600d80546001818101808455600093909352855160079092027fd7b6990105719101dabeb77144f2a3385c8033acd3af97e9423a695e81ad1eb501805487939192839160ff191690836002811115612a9e57fe5b021790555060208281015182546001600160a01b0390911661010002610100600160a81b031990911617825560408301518051612ae19260018501920190613efc565b5060608201516002820155608082015160038201805460ff191691151591909117905560a08201518051612b1f916004840191602090910190613efc565b5060c08201518160050160006101000a8154816001600160a01b0302191690836001600160a01b03160217905550505050600c8290806001815401808255809150509060018203906000526020600020906003020160009091929091909150600082015181600001556020820151816001015560408201518160020155505050600e81908060018154018082558091505090600182039060005260206000209060030201600090919290919091506000820151816000015560208201518160010155604082015181600201555050507fa392b6f735e720cf325a29453a3c0c23a26b71a2981590569ad1b3bb06f07a448e8e8e8e8e600b54612c306001600d80549050613d5f90919063ffffffff16565b60405180886002811115612c4057fe5b60ff1681526020018060200187815260200180602001866001600160a01b03166001600160a01b03168152602001858152602001848152602001838103835289818151815260200191508051906020019080838360005b83811015612caf578181015183820152602001612c97565b50505050905090810190601f168015612cdc5780820380516001836020036101000a031916815260200191505b50838103825287518152875160209182019189019080838360005b83811015612d0f578181015183820152602001612cf7565b50505050905090810190601f168015612d3c5780820380516001836020036101000a031916815260200191505b50995050505050505050505060405180910390a1600d54612d6490600163ffffffff613d5f16565b9e9d5050505050505050505050505050565b6040805180820190915260208082527f19457468657265756d205369676e6564204d6573736167653a0a303030303030908201528451600091906039820190620f423f811115612dc557600080fd5b6000620186a05b8015612e19576000818481612ddd57fe5b04905080612df45782612df45750600a9004612dcc565b80820290930392600190920191600a8260019096019504915060300180855350612dcc565b81612e2757601b9150612e2e565b601a820191505b8185526000858b6040516020018083805190602001908083835b60208310612e675780518252601f199092019160209182019101612e48565b51815160209384036101000a600019018019909216911617905285519190930192850191508083835b60208310612eaf5780518252601f199092019160209182019101612e90565b6001836020036101000a038019825116818451168082178552505050505050905001925050506040516020818303038152906040528051906020012090506001818b8b8b60405160008152602001604052604051808581526020018460ff1660ff1681526020018381526020018281526020019450505050506020604051602081039080840390855afa158015612f4a573d6000803e3d6000fd5b5050604051601f1901519c9b505050505050505050505050565b60075460ff1681565b600a5481565b60035461010090046001600160a01b031681565b600c8181548110612f9457fe5b600091825260209091206003909102018054600182015460029092015490925083565b6000546001600160a01b031681565b6002805460408051602060018416156101000260001901909316849004601f810184900484028201840190925281815292918301828280156116765780601f1061164b57610100808354040283529160200191611676565b6000600d838154811061302d57fe5b600091825260208083206001600160a01b03861684526006600790930201919091019052604090206005015460ff16905092915050565b8051602081830181018051600f8252928201938201939093209190925280546001808301805460408051600261010095841615959095026000190190921693909304601f81018790048702820187019093528281526001600160a01b03841695600160a01b90940460ff1694939092908301828280156131255780601f106130fa57610100808354040283529160200191613125565b820191906000526020600020905b81548152906001019060200180831161310857829003601f168201915b505050600290930154919250506001600160a01b031684565b600080600f866040518082805190602001908083835b602083106131735780518252601f199092019160209182019101613154565b51815160209384036101000a6000190180199092169116179052920194855250604051938490030190922080549093506001600160a01b90910460ff1615151491506131fe9050576040805162461bcd60e51b81526020600482015260136024820152726e6f7420612076616c6964206c697374696e6760681b604482015290519081900360640190fd5b6001600160a01b038416613259576040805162461bcd60e51b815260206004820152601d60248201527f6f776e6572206d75737420626520612076616c69642061646472657373000000604482015290519081900360640190fd5b6001600160a01b03831661329e5760405162461bcd60e51b81526004018080602001828103825260218152602001806140156021913960400191505060405180910390fd5b80546001600160a01b03163314806132c2575060028101546001600160a01b031633145b613313576040805162461bcd60e51b815260206004820181905260248201527f6e6f7420617574686f72697a656420746f20757064617465206c697374696e67604482015290519081900360640190fd5b80546001600160a01b0319166001600160a01b03841617815584516133419060018301906020880190613efc565b5060020180546001600160a01b0319166001600160a01b0394909416939093179092555092915050565b60085481565b60095481565b600e8181548110612f9457fe5b600b5481565b60075460ff166133cd576040805162461bcd60e51b81526020600482015260096024820152686e6f7420726561647960b81b604482015290519081900360640190fd5b600554604080516340c10f1960e01b81523360048201526024810184905290516001600160a01b03909216916340c10f19916044808201926020929091908290030181600087803b15801561342157600080fd5b505af1158015613435573d6000803e3d6000fd5b505050506040513d602081101561344b57600080fd5b5051613499576040805162461bcd60e51b81526020600482015260186024820152776572726f7220696e206d696e74696e672070726f6365737360401b604482015290519081900360640190fd5b6040805133815260208101839052600081830181905291517f1cbc5ab135991bd2b6a4b034a04aa2aa086dac1371cb9b16b8b5e2ed6b036bed9181900360600190a15050565b600080546001600160a01b0316331461353f576040805162461bcd60e51b815260206004820152601f60248201527f6f6e6c79206f776e65722063616e2063616c6c2074686973206d6574686f6400604482015290519081900360640190fd5b6006541561358a576040805162461bcd60e51b81526020600482015260136024820152721510d488185b1c9958591e481cdd185c9d1959606a1b604482015290519081900360640190fd5b600580546001600160a01b0319166001600160a01b038481169190911791829055604080516340c10f1960e01b815230600482015260016024820152905192909116916340c10f19916044808201926020929091908290030181600087803b1580156135f557600080fd5b505af1158015613609573d6000803e3d6000fd5b505050506040513d602081101561361f57600080fd5b505161366b576040805162461bcd60e51b815260206004820152601660248201527532b93937b91034b71036b4b73a34b733903a37b5b2b760511b604482015290519081900360640190fd5b6060600360019054906101000a90046001600160a01b03166001600160a01b03166367f239dd6040518163ffffffff1660e01b815260040160006040518083038186803b1580156136bb57600080fd5b505afa1580156136cf573d6000803e3d6000fd5b505050506040513d6000823e601f3d908101601f1916820160405260208110156136f857600080fd5b8101908080516040519392919084600160201b82111561371757600080fd5b90830190602082018581111561372c57600080fd5b8251600160201b81118282018810171561374557600080fd5b82525081516020918201929091019080838360005b8381101561377257818101518382015260200161375a565b50505050905090810190601f16801561379f5780820380516001836020036101000a031916815260200191505b5060405250505090506137b0613f9b565b6040805160e081019091528060018152602001306001600160a01b03168152602001838152602001600181526020016000151581526020016040518060400160405280601081526020016f189bdbdd1cdd1c985c0818985b1b1bdd60821b8152508152602001306001600160a01b0316815250905061382d613f7a565b6040518060600160405280600181526020016000815260200160008152509050613855613f7a565b604051806060016040528042815260200142815260200142815250905061387a613e9d565b6040805160c081019091528060018152600160208201819052601b60408301527f21b421d70b3be0506646b92001839c3b004a6025263e4431ccce57e27e2d0db060608301527f305e31624e6947c4c507f879d18ef7d3f5a77f2fa6bc73bf5ed654842c44df3e6080830152600060a0909201829052600d805480830180835591909352875160079093027fd7b6990105719101dabeb77144f2a3385c8033acd3af97e9423a695e81ad1eb5018054949550909388939192839160ff19169083600281111561394557fe5b021790555060208281015182546001600160a01b0390911661010002610100600160a81b0319909116178255604083015180516139889260018501920190613efc565b5060608201516002820155608082015160038201805460ff191691151591909117905560a082015180516139c6916004840191602090910190613efc565b5060c09190910151600590910180546001600160a01b039092166001600160a01b031990921691909117905550600c8054600181810183556000928352855160039283027fdf6966c971051c3d54ec59162606531493a51404a002842f56009d7e5cf4a8c78101919091556020808801517fdf6966c971051c3d54ec59162606531493a51404a002842f56009d7e5cf4a8c88301556040808901517fdf6966c971051c3d54ec59162606531493a51404a002842f56009d7e5cf4a8c990930192909255600e8054938401815585528651929093027fbb7b4a454dc3493923482f07822329ed19e8244eff582cc204f8554c3620c3fd810192909255918501517fbb7b4a454dc3493923482f07822329ed19e8244eff582cc204f8554c3620c3fe820155908401517fbb7b4a454dc3493923482f07822329ed19e8244eff582cc204f8554c3620c3ff90910155600d8054839290613b1f57fe5b6000918252602080832083546001600160a01b0316845260066007909302019190910190526040902081518154829060ff19166001836002811115613b6057fe5b0217905550602082810151600183015560408084015160028401805460ff90921660ff19928316179055606085015160038501556080850151600485015560a090940151600590930180549315159390941692909217909255426006819055815190815290517e6e0c97de781a7389d44ba8fd35d1467cabb17ed04d038d166d34ab819213f3929181900390910190a15060019695505050505050565b60048181548110613c0a57fe5b6000918252602090912001546001600160a01b0316905081565b60075460ff16613c67576040805162461bcd60e51b81526020600482015260096024820152686e6f7420726561647960b81b604482015290519081900360640190fd5b6040805133815260208101839052600081830181905291517fed7a144fad14804d5c249145e3e0e2b63a9eb455b76aee5bc92d711e9bba3e4a9181900360600190a15050565b6005546001600160a01b031681565b600082820183811015613d16576040805162461bcd60e51b815260206004820152601b60248201527f536166654d6174683a206164646974696f6e206f766572666c6f770000000000604482015290519081900360640190fd5b9392505050565b6000613d1683836040518060400160405280601a81526020017f536166654d6174683a206469766973696f6e206279207a65726f000000000000815250613da1565b6000613d1683836040518060400160405280601e81526020017f536166654d6174683a207375627472616374696f6e206f766572666c6f770000815250613e43565b60008183613e2d5760405162461bcd60e51b81526004018080602001828103825283818151815260200191508051906020019080838360005b83811015613df2578181015183820152602001613dda565b50505050905090810190601f168015613e1f5780820380516001836020036101000a031916815260200191505b509250505060405180910390fd5b506000838581613e3957fe5b0495945050505050565b60008184841115613e955760405162461bcd60e51b8152602060048201818152835160248401528351909283926044909101919085019080838360008315613df2578181015183820152602001613dda565b505050900390565b6040805160c08101909152806000815260006020820181905260408201819052606082018190526080820181905260a09091015290565b6040805160808101825260008082526020820181905260609282018390529181019190915290565b828054600181600116156101000203166002900490600052602060002090601f016020900481019282601f10613f3d57805160ff1916838001178555613f6a565b82800160010185558215613f6a579182015b82811115613f6a578251825591602001919060010190613f4f565b50613f76929150613fd8565b5090565b60405180606001604052806000815260200160008152602001600081525090565b6040805160e0810190915280600081526000602082018190526060604083018190528083018290526080830182905260a083015260c09091015290565b6115e891905b80821115613f765760008155600101613fde56fe626f6f7473747261702070726f6365737320616c726561647920636f6d706c6574656170706c6963616e74206d75737420626520612076616c696420616464726573736465706f73697420746f6b656e207472616e73666572206661696c6564207768656e20616464696e6720746f2072656769737472795769746864726177616c20697320666f722077696e6e6572732062757420796f7520766f746564207965735769746864726177616c20697320666f722077696e6e6572732062757420796f7520766f746564206e6fa265627a7a72315820cc32fb4f22d40b689a3180c8f17beb8db1107f4cf28a9cd0887273c0b08336c464736f6c634300050b00325f766f74696e674475726174696f6e53656373206d7573742062652067726561746572207468616e2030",
  "source": "pragma solidity >0.5.6 <0.6.0;\n\nimport \"./BootstrapList.sol\";\nimport \"./DaoToken.sol\";\nimport \"./SafeMath.sol\";\n\ncontract TCR {\n    using SafeMath for uint256;\n    /****************\n        GLOBAL CONSTANTS\n        ****************/\n    address public owner;               // Registry contract\n    string public name;                 // TCR token name\n    string public symbol;               // TCR token symbol\n    uint8 public decimals;              // TCR token decimals\n    BootstrapList public bootstrapList; // distribution list used\n    address[] public bootstrapMembers;  // initial members\n    DaoToken public token;         // TCR token\n    uint public startDate;              // start date of the TCR\n    bool public ready;                  // true only after all tokens have been airdropped\n    uint public votingDurationSecs;     // poll time length in secs\n    uint public revealDurationSecs;     // reveal time length in secs\n    uint public memberIndex;            // tracks bootstrap airdop process\n    uint public currentBallotIndex;     // tracks current ballot\n\n    /******\n        EVENTS\n        ******/\n    event Deployed(\n        address owner,\n        uint votingDurationSecs,\n        uint revealDurationSecs,\n        string name,\n        string symbol,\n        uint8 decimals,\n        address bootstrapList\n    );\n\n    event Started(\n        uint startDate\n    );\n\n    event Bootstrap(\n        uint processCount,\n        uint previousIndex,\n        uint updatedIndex,\n        bool ready\n    );\n\n    event Buy(\n        address buyer,\n        uint amount,\n        uint price\n    );\n\n    event Sell(\n        address seller,\n        uint amount,\n        uint price\n    );\n\n    event Submit(\n        BallotType action,\n        string entry,\n        uint amount,\n        string details,\n        address owner,\n        uint currentPollId,\n        uint pollId\n    );\n\n    event Commit(\n        address voter,\n        uint amount,\n        uint pollId\n    );\n\n    event Reveal(\n        address voter,\n        Vote vote,\n        uint amount,\n        uint pollId\n    );\n\n    event Processed(\n        uint pollId\n    );\n\n    event Claim(\n        address voter,\n        uint pollId,\n        uint amount\n    );\n\n    enum Vote {\n        Null,   // default value, counted as abstention\n        Yes,    // depending on action, can affirm/object adding/removing\n        No      // entry from registry, a tie sides with affirmation\n    }\n\n    enum BallotType {\n        Null,   // default value, counted as no action\n        Add,    // add entry action\n        Remove  // remove entry action\n    }\n\n    struct Submission {\n        Vote vote;      // either Yes or No\n        uint amount;    // amount deposited for vote\n        uint8 v;        // signature v\n        bytes32 r;      // signature r\n        bytes32 s;      // signature s\n        bool claimed;   // winning submission rewards should only be claimed once\n    }\n\n    // y/n\n    struct Tally {\n        uint yesVotes;              // number of yes votes\n        uint noVotes;               // number of no votes\n        uint unrevealedAmountTotal; // voters that did not reveal vote in time\n    }\n\n    // actions\n    struct Ballot {\n        BallotType action;          // add or remove action\n        address applicant;          // applicant submitting ballot\n        string entry;               // entry in to registry\n        uint deposit;               // vote deposit\n        bool processed;             // ballot should only be processed once\n        string details;             // arbitrary details regarding ballot\n        address owner;              // owner of entry\n        mapping (\n            address => Submission\n        ) votesByVoter;             // track voters\n    }\n\n    // timing\n    struct Poll {\n        uint startTime;     // poll start time\n        uint endTime;       // poll end time (also starts reveal period)\n        uint revealEndTime; // poll reveal end time\n    }\n\n    struct Registry {\n        address applicant;  // applicant that submitted entry\n        bool valid;         // valid entry\n        string details;     // arbitrary string data\n        address owner;      // owner address responsible for entry\n    }\n\n    Tally[] public tallyQueue;      // divided in to several\n    Ballot[] public ballotQueue;    // queues to avoid\n    Poll[] public pollQueue;        // stack too deep errors\n\n    mapping (string => Registry) public tcr;   // TCR\n\n    modifier onlyOwner {\n        require(msg.sender == owner, \"only owner can call this method\");\n        _;\n    }\n\n    modifier isReady {\n        require(ready, \"not ready\");\n        _;\n    }\n\n    constructor(\n        address _owner,\n        uint _votingDurationSecs,\n        uint _revealDurationSecs,\n        // string memory _name,\n        // string memory _symbol,\n        // uint8 _decimals,\n        address _bootstrapList\n    ) public {\n        require(_owner != address(0), \"_owner can not be 0\");\n        require(_votingDurationSecs > 0, \"_votingDurationSecs must be greater than 0\");\n\n        owner = _owner;\n        votingDurationSecs = _votingDurationSecs;\n        revealDurationSecs = _revealDurationSecs;\n\n        bootstrapList = BootstrapList(_bootstrapList);\n\n        emit Deployed(owner, votingDurationSecs, revealDurationSecs, name, symbol, decimals, address(bootstrapList));\n    }\n\n    // Initialization\n    // -------------------------------------------------------------------------\n\n    function start(address _token) public onlyOwner returns(bool) {\n        require(startDate == 0, \"TCR already started\");\n\n        // launch TCR token\n        // token = new DaoToken(name, symbol, decimals);\n        // require(token.mint(address(this), 1), \"error in minting process\");\n\n        token = DaoToken(_token);\n        require(token.mint(address(this), 1), \"error in minting token\");\n\n        string memory entry = bootstrapList.entry();\n\n        // bootstrap ballot submission to avoid future bootstrap checks\n        Ballot memory bootstrapBallot = Ballot(\n            BallotType.Add,\n            address(this),\n            entry,\n            1,\n            false,\n            \"bootstrap ballot\",\n            address(this)\n        );\n\n        Tally memory bootstrapTally = Tally(\n            1,\n            0,\n            0\n        );\n\n        Poll memory bootstrapPoll = Poll(\n            now,\n            now,\n            now\n        );\n\n        Submission memory bootstrapSubmission = Submission(\n            Vote.Yes,\n            1,\n            27,\n            0x21b421d70b3be0506646b92001839c3b004a6025263e4431ccce57e27e2d0db0,\n            0x305e31624e6947c4c507f879d18ef7d3f5a77f2fa6bc73bf5ed654842c44df3e,\n            false\n        );\n\n        ballotQueue.push(bootstrapBallot);\n        tallyQueue.push(bootstrapTally);\n        pollQueue.push(bootstrapPoll);\n\n        ballotQueue[0].votesByVoter[owner] = bootstrapSubmission;\n        startDate = now;\n\n        emit Started(startDate);\n\n        return true;\n    }\n\n    function bootstrap(uint _numberOfMembersToBootstrap) public returns (uint index) {\n        require(startDate > 0, \"contract has not yet started\");\n        require(ready == false, \"bootstrap process already complete\");\n\n        address[] memory members = bootstrapList.members();\n\n        uint count;\n        uint previousIndex = memberIndex;\n\n        if (_numberOfMembersToBootstrap.add(memberIndex) > members.length) {\n            count = members.length;\n        } else {\n            count = _numberOfMembersToBootstrap + memberIndex;\n        }\n\n        // mint and transfer tokens to members\n        for (uint i = memberIndex; i < count; i++) {\n            require(token.mint(members[i], 1), \"error in minting process\");\n            bootstrapMembers.push(members[i]);\n        }\n        memberIndex = count;\n\n        if(memberIndex == members.length) {\n            ready = true;\n        }\n\n        emit Bootstrap(_numberOfMembersToBootstrap, previousIndex, count, ready);\n\n        return count;\n    }\n\n    // Token\n    // -------------------------------------------------------------------------\n\n    function buy(uint _buyAmount) public isReady {\n        /*\n        TODO : mint based on bonding curve\n        */\n\n        // TODO : REMOVE - testing function remove\n        require(token.mint(msg.sender, _buyAmount), \"error in minting process\");\n\n\n        uint price;\n\n        emit Buy(msg.sender, _buyAmount, price);\n    }\n\n    function sell(uint _sellAmount) public isReady {\n        /*\n        TODO : burn based on bonding curve\n        */\n        uint price;\n\n        emit Sell(msg.sender, _sellAmount, price);\n    }\n\n    // Ballot\n    // -------------------------------------------------------------------------\n\n    function submit(\n        BallotType _action,\n        string  memory _entrySubmission,\n        uint _submissionAmount,\n        string memory _details,\n        address _owner\n        )\n        public isReady returns (uint) {\n\n        uint startTime;\n        uint endTime;\n        uint revealEndTime;\n\n        uint yesVote;\n        uint noVote;\n\n        require(_action == BallotType.Add || _action == BallotType.Remove,\"invalid ballot action\");\n        if (_action == BallotType.Add) {\n            require(tcr[_entrySubmission].valid == false, \"submission already exists\");\n            yesVote = 1;\n        }\n        if (_action == BallotType.Remove) {\n            require(tcr[_entrySubmission].valid == true, \"submission does not exist\");\n            noVote = 1;\n        }\n        require(_submissionAmount > 0, \"deposit error\");\n        require(token.transferFrom(msg.sender, address(this), _submissionAmount), \"deposit token transfer failed when adding to registry\");\n\n        // set parameters to begin new poll immediately\n        // if submission will be at the head of the queue\n        if (currentBallotIndex == ballotQueue.length) {\n            startTime = now;\n            endTime = now.add(votingDurationSecs);\n            revealEndTime = now.add(votingDurationSecs).add(revealDurationSecs);\n        }\n\n        Ballot memory newBallotAdd = Ballot(\n            _action,\n            msg.sender,\n            _entrySubmission,\n            _submissionAmount,\n            false,\n            _details,\n            _owner\n        );\n\n        Tally memory newTallyAdd = Tally (\n            yesVote,\n            noVote,\n            _submissionAmount\n        );\n\n        Poll memory newPollAdd = Poll(\n            startTime,\n            endTime,\n            revealEndTime\n        );\n\n        ballotQueue.push(newBallotAdd);\n        tallyQueue.push(newTallyAdd);\n        pollQueue.push(newPollAdd);\n\n        emit Submit(_action, _entrySubmission, _submissionAmount, _details, _owner, currentBallotIndex, ballotQueue.length.sub(1));\n\n        return ballotQueue.length.sub(1);\n    }\n\n    // Voting\n    // -------------------------------------------------------------------------\n\n    function commit(uint _voteAmount, uint8 _v, bytes32 _r, bytes32 _s) public isReady returns (bool) {\n        Ballot storage ballot = ballotQueue[currentBallotIndex];\n        Tally storage tally = tallyQueue[currentBallotIndex];\n        Poll storage poll = pollQueue[currentBallotIndex];\n\n        require(ballot.deposit <= _voteAmount, \"insufficient deposit amount\");\n        require(token.transferFrom(msg.sender, address(this), _voteAmount), \"deposit token transfer failed\");\n        require(_v != uint8(0), \"invalid v\");\n        require(_r != bytes32(0), \"invalid r\");\n        require(_s != bytes32(0), \"invalid s\");\n        require(poll.endTime > now, \"poll no longer open\");\n\n        Submission memory submission = Submission(\n            Vote.Null,\n            _voteAmount,\n            _v,\n            _r,\n            _s,\n            false\n        );\n        \n        ballot.votesByVoter[msg.sender] = submission;\n        tally.unrevealedAmountTotal = tally.unrevealedAmountTotal.add(_voteAmount);\n\n        emit Commit(msg.sender, _voteAmount, currentBallotIndex);\n\n        return true;\n    }\n\n    function reveal(string memory _vote) public isReady returns(bool) {\n        Ballot storage ballot = ballotQueue[currentBallotIndex];\n        Tally storage tally = tallyQueue[currentBallotIndex];\n        Poll storage poll = pollQueue[currentBallotIndex];\n        Submission storage submission = ballot.votesByVoter[msg.sender];\n        // revealSubmission = submission;   // DEBUG ONLY\n\n        address signer = verify(_vote, submission.v, submission.r, submission.s);\n\n        require(poll.endTime < now && now < poll.revealEndTime, \"poll not in reveal phase\");\n        require(submission.vote == Vote.Null, \"vote already revealed\");\n        require(signer == msg.sender, \"signature does not match\");\n        require(keccak256(abi.encode(_vote)) == keccak256(abi.encode(\"1\")) || \n            keccak256(abi.encode(_vote)) == keccak256(abi.encode(\"2\")), \n            \"invalid vote\"\n        );\n\n        if (keccak256(abi.encode(_vote)) == keccak256(abi.encode(\"1\"))) {\n            submission.vote = Vote.Yes;\n            tally.yesVotes = tally.yesVotes.add(submission.amount);\n        } else {\n            submission.vote = Vote.No;\n            tally.noVotes = tally.noVotes.add(submission.amount);\n        }\n\n        tally.unrevealedAmountTotal = tally.unrevealedAmountTotal.sub(submission.amount);\n        emit Reveal(msg.sender, submission.vote, submission.amount, currentBallotIndex);\n\n        return true;\n    }\n\n    // Finalization\n    // -------------------------------------------------------------------------\n\n    function processBallot() public isReady returns (bool) {\n        Ballot storage currentBallot = ballotQueue[currentBallotIndex];\n        Poll storage currentPoll = pollQueue[currentBallotIndex];\n        Tally storage currentTally = tallyQueue[currentBallotIndex];\n\n        require(currentBallot.action != BallotType.Null, \"no ballot to process\");\n        require(currentPoll.startTime > 0 && now > currentPoll.revealEndTime, \"ballot in progress\");\n        require(currentBallot.processed == false, \"ballot already processed\");\n\n        currentBallot.processed = true;\n        currentBallotIndex = currentBallotIndex.add(1);\n\n        // TODO : tally votes and either add or remove from registry\n        if (currentTally.yesVotes >= currentTally.noVotes) {\n            if (currentBallot.action == BallotType.Add) {\n                Registry memory addToRegistry = Registry(\n                    currentBallot.applicant,\n                    true,\n                    currentBallot.details,\n                    currentBallot.owner\n                );\n                tcr[currentBallot.entry] = addToRegistry;\n            }\n            if (currentBallot.action == BallotType.Remove) {\n                Registry memory removeFromRegistry = Registry(\n                    currentBallot.applicant,\n                    false,\n                    currentBallot.details,\n                    currentBallot.owner\n                );\n                tcr[currentBallot.entry] = removeFromRegistry;\n            }\n        }\n\n        emit Processed(currentBallotIndex);\n\n        // start next ballot in queue\n        if (currentBallotIndex < ballotQueue.length) {\n            Poll memory startPoll = Poll(\n                now,\n                now.add(votingDurationSecs),\n                now.add(votingDurationSecs).add(revealDurationSecs)\n            );\n            pollQueue[currentBallotIndex] = startPoll;\n        }\n        return true;\n    }\n\n    function claim(uint _pollId) public isReady returns(bool) {\n        Ballot storage claimBallot = ballotQueue[_pollId];\n        Tally storage claimTally = tallyQueue[_pollId];\n        require(claimBallot.processed == true, \"poll has not yet been processed\");\n        require(claimBallot.votesByVoter[msg.sender].claimed != true, \"already claimed\");\n        require(claimBallot.votesByVoter[msg.sender].amount > 0, \"vote not registered\");\n        require(claimBallot.votesByVoter[msg.sender].vote == Vote.Yes ||\n                claimBallot.votesByVoter[msg.sender].vote == Vote.No, \"failed to reveal\");\n\n        uint proportionalShare;\n\n        if (claimTally.yesVotes >= claimTally.noVotes) {\n            require(claimBallot.votesByVoter[msg.sender].vote == Vote.Yes, \"Withdrawal is for winners but you voted no\");\n            if (claimTally.yesVotes >= claimTally.unrevealedAmountTotal) {\n                proportionalShare = claimTally.unrevealedAmountTotal.div(claimTally.yesVotes);\n            } else {\n                proportionalShare = 0;\n            }\n        } else {\n            require(claimBallot.votesByVoter[msg.sender].vote == Vote.No, \"Withdrawal is for winners but you voted yes\");\n            if (claimTally.noVotes >= claimTally.unrevealedAmountTotal) {\n                proportionalShare = claimTally.unrevealedAmountTotal.div(claimTally.noVotes);\n            } else {\n                proportionalShare = 0;\n            }\n        }\n\n        uint claimTotal = claimBallot.votesByVoter[msg.sender].amount.add(proportionalShare);\n        require(token.transfer(msg.sender, claimTotal), \"claim transfer failed\");\n\n        claimBallot.votesByVoter[msg.sender].claimed = true;\n\n        emit Claim(msg.sender, _pollId, claimTotal);\n\n        return true;\n    }\n\n    function update(string memory _listing, string memory _details, address _owner, address _applicant) public returns (bool) {\n        Registry storage listing = tcr[_listing];\n\n        require(listing.valid == true, \"not a valid listing\");\n        require(_owner != address(0), \"owner must be a valid address\");\n        require(_applicant != address(0), \"applicant must be a valid address\");\n        require(msg.sender == listing.applicant || msg.sender == listing.owner, \"not authorized to update listing\");\n\n        listing.applicant = _applicant;\n        listing.details = _details;\n        listing.owner = _owner;\n    }\n\n    // Getters\n    // -------------------------------------------------------------------------\n\n    function memberListLength() public view returns(uint) {\n        return bootstrapMembers.length;\n    }\n\n    function ballotQueueLength() public view returns(uint) {\n        return ballotQueue.length;\n    }\n\n    function didClaim(uint _pollId, address _voter) public view returns(bool) {\n        return ballotQueue[_pollId].votesByVoter[_voter].claimed;\n    }\n\n    function verify(string memory _message, uint8 _v, bytes32 _r, bytes32 _s) public pure returns (address voter) {\n        string memory header = \"\\x19Ethereum Signed Message:\\n000000\";\n\n        uint256 lengthOffset;\n        uint256 length;\n        assembly {\n            length := mload(_message)\n            lengthOffset := add(header, 57)\n        }\n        require(length <= 999999);\n        uint256 lengthLength = 0;\n        uint256 divisor = 100000;\n\n        while (divisor != 0) {\n            uint256 digit = length / divisor;\n            if (digit == 0) {\n                if (lengthLength == 0) {\n                    divisor /= 10;\n                    continue;\n                }\n            }\n\n            lengthLength++;\n            length -= digit * divisor;\n            divisor /= 10;\n            digit += 0x30;\n            lengthOffset++;\n\n            assembly {\n                mstore8(lengthOffset, digit)\n            }\n        }\n\n        if (lengthLength == 0) {\n            lengthLength = 1 + 0x19 + 1;\n        } else {\n            lengthLength += 1 + 0x19;\n        }\n        assembly {\n            mstore(header, lengthLength)\n        }\n\n        bytes32 check = keccak256(abi.encodePacked(header, _message));\n\n        return ecrecover(check, _v, _r, _s);\n    }\n}",
  "sourcePath": "/Users/davidkajpust/coding-no-icloud-backup/thegraph/subgraphs/metacartel/appregistry/contracts/TCR.sol",
  "compiler": {
    "name": "solc",
    "version": "0.5.11+commit.c082d0b4.Emscripten.clang"
  },
  "schemaVersion": "3.0.10",
  "updatedAt": "2019-10-02T15:59:03.266Z",
  "devdoc": {
    "methods": {}
  },
  "userdoc": {
    "methods": {}
  }
}